:100000000C942A000C943F000C943F000C943F0089
:100010000C943F000C943F000C943F000C943F0064
:100020000C943F000C943F000C943F000C943F0054
:100030000C943F000C943F000C943F000C943F0044
:100040000C943F000C943F000C943F000C943F0034
:100050000C943F0011241FBECFE5D8E0DEBFCDBF1A
:1000600011E0A0E6B0E0E0E7F0E202C005900D92FA
:10007000AC3AB107D9F70E94870C0C9436100C9457
:100080000000EF92FF920F931F937B018C0120E001
:1000900030E040E05FE40E94410388238CF0C80117
:1000A000B70120E030E040E05FE40E94B9010E9427
:1000B000FF039B01AC01205030404040504806C037
:1000C000C801B7010E94FF039B01AC01B901CA013D
:1000D0001F910F91FF90EF900895A0E0B0E0E3E74B
:1000E000F0E00C94190DDC012B01FA019C91923087
:1000F00008F439C1EB018881823008F433C19430AF
:1001000069F4843009F02FC111969C91119789816F
:10011000981709F428C1ABE7B0E025C1843009F491
:1001200021C18230A9F4923009F01DC19A01AD01BC
:1001300088E0EA010990AE01E90109929E0181502F
:10014000C1F7E201898111969C918923818308C1BD
:10015000923009F407C112962D903C901397EB0151
:100160008A819B811496AD90BD90CD90DC901797BD
:10017000EC80FD800E811F819101281B390BB90194
:1001800037FF04C066277727621B730B6032710547
:100190000CF061C0121613066CF537014801062EEB
:1001A00004C096948794779467940A94D2F721E0D8
:1001B00030E040E050E004C0220F331F441F551FC1
:1001C0006A95D2F721503040404050402E213F21C7
:1001D00040235123211531054105510521F021E02E
:1001E00030E040E050E079018A01E628F72808294C
:1001F00019293CC0232BD1F1260E371E35014601AB
:10020000062E04C096948794779467940A94D2F744
:1002100021E030E040E050E004C0220F331F441FD3
:10022000551F6A95D2F721503040404050402A2156
:100230003B214C215D21211531054105510521F05E
:1002400021E030E040E050E059016A01A628B728DB
:10025000C828D9280BC0821593052CF01C01AA24AC
:10026000BB24650103C0EE24FF24870111969C91F5
:10027000D20111968C91981709F445C0992339F051
:10028000A80197012A193B094C095D0906C0A6017E
:1002900095012E193F09400B510B57FD08C01182E3
:1002A0003382228224833583468357831DC081E0B5
:1002B00081833382228288279927DC01821B930B5A
:1002C000A40BB50B84839583A683B7830DC0220F3F
:1002D000331F441F551F24833583468357838281F0
:1002E000938101979383828324813581468157814D
:1002F000DA01C9010197A109B1098F5F9F4FAF4F83
:10030000BF4328F30BC0918333822282EA0CFB1C8B
:100310000C1D1D1DE482F5820683178383E0808314
:10032000248135814681578157FF1AC0C901AA2708
:1003300097FDA095BA2F81709070A070B0705695FF
:10034000479537952795822B932BA42BB52B848328
:100350009583A683B7838281938101969383828359
:10036000DF0101C0D201CD01CDB7DEB7E2E10C94CF
:10037000350DA0E2B0E0EFEBF1E00C94250D6983C0
:100380007A838B839C832D833E834F835887E9E058
:10039000EE2EF12CEC0EFD1ECE010196B7010E944F
:1003A00077058E010F5E1F4FCE010596B8010E94A2
:1003B00077058A8991E089278A8BC701B801AE0148
:1003C000475E5F4F0E946D000E94A204A096E6E087
:1003D0000C94410DA0E2B0E0E0EFF1E00C94250DAB
:1003E00069837A838B839C832D833E834F835887D5
:1003F000F9E0EF2EF12CEC0EFD1ECE010196B701B7
:100400000E9477058E010F5E1F4FCE010596B80141
:100410000E947705C701B801AE01475E5F4F0E9499
:100420006D000E94A204A096E6E00C94410DA0E2AB
:10043000B0E0EDE1F2E00C94190D69837A838B83CF
:100440009C832D833E834F835887CE010196BE0146
:10045000675F7F4F0E947705CE010596BE016F5EF4
:100460007F4F0E9477059985923088F08989823084
:10047000C8F0943019F4823051F404C0843029F467
:10048000923081F48BE790E0C6C0923049F420E0CE
:100490009A858A89981321E02A87CE010996BBC0E4
:1004A000823049F420E09A858A89981321E02A8BCA
:1004B000CE014196B0C02D843E844F8458886D880B
:1004C0007E888F88988CEE24FF248701AA24BB2481
:1004D000650140E050E060E070E0E0E0F0E0C10184
:1004E00081709070892BE9F0E60CF71C081D191D2E
:1004F0009A01AB012A0D3B1D4C1D5D1D80E090E073
:10050000A0E0B0E0E614F7040805190520F481E046
:1005100090E0A0E0B0E0BA01A901480F591F6A1F9E
:100520007B1FAA0CBB1CCC1CDD1C97FE08C081E005
:1005300090E0A0E0B0E0A82AB92ACA2ADB2A3196C6
:10054000E032F10549F0660C771C881C991C569422
:10055000479437942794C3CFFA85EA892B893C893D
:100560008B859C85280F391F2E5F3F4F17C0CA010E
:1005700081709070892B61F016950795F794E79438
:1005800080E090E0A0E0B0E8E82AF92A0A2B1B2BD3
:1005900076956795579547952F5F3F4F77FDE7CF46
:1005A0000CC0440F551F661F771F17FD4160EE0CEE
:1005B000FF1C001F111F21503040403090E05907B0
:1005C00090E0690790E4790760F32B8F3C8FDB01A3
:1005D000CA018F779070A070B07080349105A1052A
:1005E000B10561F447FD0AC0E114F10401051105EC
:1005F00029F0405C5F4F6F4F7F4F40781A8EFE1797
:1006000011F081E08A8F4D8F5E8F6F8F78A383E02A
:10061000898FCE0149960E94A204A096E2E10C9433
:10062000350DA8E1B0E0E7E1F3E00C94250D698316
:100630007A838B839C832D833E834F83588789E005
:10064000E82EF12CEC0EFD1ECE010196B7010E94A2
:1006500077058E010F5E1F4FCE010596B8010E94EF
:1006600077058985823040F08989823028F0C7017A
:10067000B8010E94EF0501C08FEF6896E6E00C9488
:10068000410DA8E1B0E0E7E4F3E00C94250D6983A7
:100690007A838B839C832D833E834F83588789E0A5
:1006A000E82EF12CEC0EFD1ECE010196B7010E9442
:1006B00077058E010F5E1F4FCE010596B8010E948F
:1006C00077058985823040F08989823028F0C7011A
:1006D000B8010E94EF0501C08FEF6896E6E00C9428
:1006E000410DA8E1B0E0E7E7F3E00C94250D698344
:1006F0007A838B839C832D833E834F83588789E045
:10070000E82EF12CEC0EFD1ECE010196B7010E94E1
:1007100077058E010F5E1F4FCE010596B8010E942E
:1007200077058985823040F08989823028F0C701B9
:10073000B8010E94EF0501C081E06896E6E00C94E4
:10074000410DA8E0B0E0E7EAF3E00C94220D9B0134
:10075000AC0183E08983DA01C9018827B7FD83955D
:100760009927AA27BB27B82E211531054105510528
:1007700019F482E089833AC08823A9F0203080E010
:10078000380780E0480780E8580729F460E070E007
:1007900080E09FEC30C0EE24FF248701E21AF30AC8
:1007A000040B150B02C079018A018EE1C82ED12CF1
:1007B000DC82CB82ED82FE820F831887C801B701ED
:1007C0000E94530401971816190684F4082E04C0D9
:1007D000EE0CFF1C001F111F0A94D2F7ED82FE825F
:1007E0000F831887C81AD90ADC82CB82BA82CE015D
:1007F00001960E94A2042896E9E00C943E0DACE01C
:10080000B0E0E5E0F4E00C94290D69837A838B83F2
:100810009C83CE010196BE016B5F7F4F0E947705DE
:100820008D81823061F1823050F1843021F48E81EB
:10083000882351F12EC02F81388537FD20C06E816D
:100840002F3131051CF06623F9F023C08EE190E0D2
:10085000821B930B29853A854B855C8504C0569590
:100860004795379527958A95D2F76623B1F050952D
:100870004095309521953F4F4F4F5F4F0EC020E080
:1008800030E040E050E009C02FEF3FEF4FEF5FE76F
:1008900004C020E030E040E050E8B901CA012C96E5
:1008A000E2E00C94450DEF92FF920F931F937B01B2
:1008B0008C0180E0E81680E0F80681E0080780E01F
:1008C000180788F48FEFE816F1040105110531F0DF
:1008D00028F088E090E0A0E0B0E017C080E090E071
:1008E000A0E0B0E012C080E0E81680E0F80680E00A
:1008F000080781E0180728F088E190E0A0E0B0E068
:1009000004C080E190E0A0E0B0E020E230E040E010
:1009100050E0281B390B4A0B5B0B04C0169507955A
:10092000F794E7948A95D2F7F701ED57FF4F80814E
:10093000281B310941095109C9011F910F91FF90ED
:10094000EF900895DF92EF92FF920F931F93FC01B7
:10095000E480F58006811781D1808081823048F45F
:1009600080E090E0A0E1B0E0E82AF92A0A2B1B2BF6
:10097000A5C0843009F49FC0823021F4EE24FF2406
:10098000870105C0E114F1040105110519F4E0E047
:10099000F0E096C0628173819FEF623879070CF0B6
:1009A0005BC022E83FEF261B370B2A3131052CF0C4
:1009B00020E030E040E050E02AC0B801A701022E5C
:1009C00004C076956795579547950A94D2F781E0CC
:1009D00090E0A0E0B0E004C0880F991FAA1FBB1FE1
:1009E0002A95D2F70197A109B1098E219F21A02351
:1009F000B1230097A105B10521F081E090E0A0E0CE
:100A0000B0E09A01AB01282B392B4A2B5B2BDA0182
:100A1000C9018F779070A070B07080349105A105E6
:100A2000B10539F427FF09C0205C3F4F4F4F5F4F9E
:100A300004C0215C3F4F4F4F5F4FE0E0F0E02030BB
:100A4000A0E03A07A0E04A07A0E45A0710F0E1E06E
:100A5000F0E079018A0127C06038710564F5FB0177
:100A6000E158FF4FD801C7018F779070A070B07028
:100A700080349105A105B10539F4E7FE0DC080E48D
:100A800090E0A0E0B0E004C08FE390E0A0E0B0E030
:100A9000E80EF91E0A1F1B1F17FF05C016950795C4
:100AA000F794E794319687E016950795F794E794C5
:100AB0008A95D1F705C0EE24FF248701EFEFF0E01F
:100AC0006E2F679566276795902F9F77D794DD24C3
:100AD000D7948E2F8695492F462B582F5D29B70125
:100AE000CA011F910F91FF90EF90DF900895FC01D4
:100AF000DB01408151812281622F6F7770E0221FDC
:100B00002227221F9381892F880F822B282F30E0E4
:100B1000991F9927991F11969C93119721153105BB
:100B2000A9F5411551056105710511F482E037C041
:100B300082E89FEF13969C938E9312979A01AB01D4
:100B400067E0220F331F441F551F6A95D1F783E0DA
:100B50008C930DC0220F331F441F551F12968D9189
:100B60009C911397019713969C938E931297203024
:100B700080E0380780E0480780E4580758F314966F
:100B80002D933D934D935C93179708952F3F310517
:100B900079F4411551056105710519F484E08C93D0
:100BA000089564FF03C081E08C9312C01C9210C0B2
:100BB0002F57304013963C932E93129783E08C93DB
:100BC00087E0440F551F661F771F8A95D1F7706421
:100BD00014964D935D936D937C93179708951F938F
:100BE000DC01FB019C91923008F447C08081823087
:100BF00008F443C0943051F411961C91843099F557
:100C00008181682F70E0611B71093FC0843021F041
:100C1000923031F48230B9F18181882389F12DC07D
:100C200011961C9111978230F1F081811817D9F437
:100C300012962D913C91139782819381821793078D
:100C400094F028173907BCF014968D919D910D9062
:100C5000BC91A02D24813581468157812817390701
:100C60004A075B0718F4112341F00AC08217930763
:100C7000A407B50740F4112319F061E070E005C046
:100C80006FEF7FEF02C060E070E0CB011F9108952D
:100C9000DF93CF93CDB7DEB76C970FB6F894DEBF76
:100CA0000FBECDBF80E090E0A0EAB1E4898F9A8FBB
:100CB000AB8FBC8F698D7A8D8B8D9C8D20E030E061
:100CC0004AEF54E40E941702DC01CB018D8B9E8B0E
:100CD000AF8BB88F6D897E898F89988D20E030E049
:100CE00040E85FE30E94710388232CF481E090E0E8
:100CF0009C8B8B8B3FC06D897E898F89988D20E07E
:100D00003FEF4FE757E40E94110318164CF5698D29
:100D10007A8D8B8D9C8D20E030E040E251E40E9482
:100D20001702DC01CB01BC01CD010E944100DC01B6
:100D3000CB019C8B8B8B0FC088EC90E09A8B898BBE
:100D400089899A890197F1F79A8B898B8B899C897C
:100D500001979C8B8B8B8B899C89009769F714C0BA
:100D60006D897E898F89988D0E944100DC01CB01BD
:100D70009C8B8B8B8B899C89988B8F878F8598898F
:100D80000197F1F7988B8F8781E06FEF0E94600BDE
:100D900081E060E00E94460B80E06FEF0E94600BF4
:100DA00080E090E0A0E7B1E48B879C87AD87BE87A9
:100DB0006B857C858D859E8520E030E04AEF54E48C
:100DC0000E941702DC01CB018F839887A987BA871D
:100DD0006F81788589859A8520E030E040E85FE37F
:100DE0000E94710388232CF481E090E09E838D8320
:100DF0003FC06F81788589859A8520E03FEF4FE776
:100E000057E40E94110318164CF56B857C858D857F
:100E10009E8520E030E040E251E40E941702DC01B0
:100E2000CB01BC01CD010E944100DC01CB019E83BE
:100E30008D830FC088EC90E09C838B838B819C8199
:100E40000197F1F79C838B838D819E8101979E830F
:100E50008D838D819E81009769F714C06F8178859D
:100E600089859A850E944100DC01CB019E838D8398
:100E70008D819E819A83898389819A810197F1F777
:100E80009A83898381E00E947E0782E00E947E0728
:100E900088E20E947E0786E00E947E0780E80E942A
:100EA0007E078FE00E947E076C960FB6F894DEBF37
:100EB0000FBECDBFCF91DF910895DF93CF9300D0C8
:100EC000CDB7DEB789836A838981882341F48A811B
:100ED000803178F48A8180580E947E070AC0898117
:100EE000813039F48A81803120F48A8180540E94D3
:100EF0007E070F900F90CF91DF910895DF93CF93EE
:100F00000F92CDB7DEB78983ABE3B0E0EBE3F0E05F
:100F10008081982F9F708981807F892B8C9381E0BD
:100F200061E040E00E94000A81E062E040E00E944F
:100F3000000A0E944008ABE3B0E0EBE3F0E0808100
:100F4000282F2F708981882F90E082959295907F2D
:100F50009827807F9827822B8C9381E061E040E086
:100F60000E94000A81E062E040E00E94000A0E94C4
:100F700040080F90CF91DF910895DF93CF930F92A8
:100F8000CDB7DEB78983ABE3B0E0EBE3F0E080817F
:100F9000982F9F708981807F892B8C9381E061E0FD
:100FA00041E00E94000A81E062E040E00E94000A05
:100FB0000E944008ABE3B0E0EBE3F0E08081282F33
:100FC0002F708981882F90E082959295907F982745
:100FD000807F9827822B8C9381E061E041E00E9422
:100FE000000A81E062E040E00E94000A0E9440089E
:100FF0000F90CF91DF910895DF93CF9300D000D071
:10100000CDB7DEB79C838B831A8219822DC089816C
:101010009A8101969A838983EB81FC8120818B815F
:101020009C8101969C838B83822F0E94BD078981BE
:101030009A818031910529F481E060E00E945D078A
:1010400013C089819A818032910529F089819A8122
:101050008132910549F481E00E947E0780E060E0E2
:101060000E945D071A821982EB81FC8180818823AE
:1010700071F60F900F900F900F90CF91DF91089520
:10108000DF93CF93CDB7DEB72E970FB6F894DEBFC0
:101090000FBECDBF81E063E040E00E94000A80E027
:1010A00090E0A8E4B2E48B879C87AD87BE876B8510
:1010B0007C858D859E8520E030E04AEF54E40E94D7
:1010C0001702DC01CB018F839887A987BA876F81CC
:1010D000788589859A8520E030E040E85FE30E94CA
:1010E000710388232CF481E090E09E838D833FC0C0
:1010F0006F81788589859A8520E03FEF4FE757E437
:101100000E94110318164CF56B857C858D859E8594
:1011100020E030E040E251E40E941702DC01CB0104
:10112000BC01CD010E944100DC01CB019E838D8377
:101130000FC088EC90E09C838B838B819C8101970E
:10114000F1F79C838B838D819E8101979E838D8394
:101150008D819E81009769F714C06F81788589859C
:101160009A850E944100DC01CB019E838D838D8195
:101170009E819A83898389819A810197F1F79A8365
:10118000898381E063E041E00E94000A2E960FB659
:10119000F894DEBF0FBECDBFCF91DF910895DF93EE
:1011A000CF93CDB7DEB729970FB6F894DEBF0FBE49
:1011B000CDBF99878887888599859E012F5F3F4F8E
:1011C000B9014AE050E00E94500DCE0101960E9404
:1011D000FC0729960FB6F894DEBF0FBECDBFCF91A6
:1011E000DF910895DF93CF93CDB7DEB7A8970FB601
:1011F000F894DEBF0FBECDBF6F8F78A389A39AA3EB
:101200006F8D78A189A19AA120E030E040E050E004
:101210000E94710388232CF420E630E038A72FA326
:1012200004C042E650E058A74FA38FA198A59E871F
:101230008D876F8D78A189A19AA120E030E040E0F0
:1012400050E00E947103882364F48F8D98A1A9A1B6
:10125000BAA19C01AD0150582BA33CA34DA35EA3A2
:1012600008C08F8D98A1A9A1BAA18BA39CA3ADA3FF
:10127000BEA32BA13CA14DA15EA129873A874B8734
:101280005C8769857A858B859C850E94FF03DC01DC
:10129000CB0198878F838F819885AA2797FDA0958A
:1012A000BA2FBC01CD010E94A1039B01AC0169854D
:1012B0007A858B859C850E94B901DC01CB018B83EB
:1012C0009C83AD83BE836B817C818D819E8120E078
:1012D00030E44CE156E40E941702DC01CB01BC0172
:1012E000CD010E94FF03DC01CB019A8389834DB7B6
:1012F0005EB74A5050400FB6F8945EBF0FBE4DBF68
:10130000EDB7FEB73196CE010F969183808383E6C9
:1013100090E0938382838D859E85958384838F81DE
:1013200098859783868389819A81918780870E9497
:10133000710D8DB79EB70A960FB6F8949EBF0FBE7B
:101340008DBFCE010F960E94FC07A8960FB6F894A9
:10135000DEBF0FBECDBFCF91DF910895DF93CF9356
:10136000CDB7DEB7E0918B01F0918C011082E09156
:101370008D01F0918E011082E0918F01F09190012A
:101380001082E0919101F09192011082CF91DF9152
:101390000895DF93CF9300D000D00F92CDB7DEB782
:1013A0008A836B835D834C838B81883010F0198234
:1013B0001EC08A81882F90E0880F991FFC01ED568E
:1013C000FE4F0190F081E02D8081282F30E08B814D
:1013D000882F90E0A90102C0559547958A95E2F7BC
:1013E000CA018170EC81FD81808381E089838981DC
:1013F0000F900F900F900F900F90CF91DF91089565
:10140000DF93CF9300D000D000D0CDB7DEB78A8372
:101410006B834C838B81883010F019825FC08C8184
:10142000282F30E03E832D838D819E81009769F1C6
:101430002D813E812130310509F04FC08A81882FEE
:1014400090E0880F991FFC01ED57FE4FA081B181FC
:101450008A81882F90E0880F991FFC01ED57FE4F7D
:101460000190F081E02D8081482F8B81282F30E082
:1014700081E090E0022E02C0880F991F0A94E2F7E3
:10148000842B8C9381E0898329C08A81882F90E006
:10149000880F991FFC01ED57FE4FA081B1818A8111
:1014A000882F90E0880F991FFC01ED57FE4F0190A7
:1014B000F081E02D8081482F8B81282F30E081E062
:1014C00090E0022E02C0880F991F0A94E2F78095DF
:1014D00084238C9381E0898301C0198289812696B7
:1014E0000FB6F894DEBF0FBECDBFCF91DF91089548
:1014F000DF93CF9300D000D000D0CDB7DEB78A8382
:101500006B834C838B81883010F019825FC08C8193
:10151000282F30E03E832D838D819E81009769F1D5
:101520002D813E812130310509F04FC08A81882FFD
:1015300090E0880F991FFC01E557FE4FA081B18113
:101540008A81882F90E0880F991FFC01E557FE4F94
:101550000190F081E02D8081482F8B81282F30E091
:1015600081E090E0022E02C0880F991F0A94E2F7F2
:10157000842B8C9381E0898329C08A81882F90E015
:10158000880F991FFC01E557FE4FA081B1818A8128
:10159000882F90E0880F991FFC01E557FE4F0190BE
:1015A000F081E02D8081482F8B81282F30E081E071
:1015B00090E0022E02C0880F991F0A94E2F78095EE
:1015C00084238C9381E0898301C0198289812696C6
:1015D0000FB6F894DEBF0FBECDBFCF91DF91089557
:1015E000DF93CF9300D000D00F92CDB7DEB78A83C0
:1015F0006B835D834C838B81883010F019821EC011
:101600008A81882F90E0880F991FFC01E557FE4FD3
:101610000190F081E02D8081282F30E08B81882F90
:1016200090E0A90102C0559547958A95E2F7CA0155
:101630008170EC81FD81808381E0898389810F90B5
:101640000F900F900F900F90CF91DF910895DF933F
:10165000CF9300D00F92CDB7DEB789837B836A83A7
:101660008981882F90E0880F991FFC01ED56FE4F6D
:101670000190F081E02D8081EA81FB81808381E00F
:101680000F900F900F90CF91DF910895DF93CF933C
:1016900000D0CDB7DEB789836A838981882F90E037
:1016A000880F991FFC01ED57FE4F0190F081E02D4E
:1016B0008A81808381E00F900F90CF91DF91089510
:1016C000DF93CF9300D0CDB7DEB789836A8389815A
:1016D000882F90E0880F991FFC01E557FE4F01907D
:1016E000F081E02D8A81808381E00F900F90CF916F
:1016F000DF910895DF93CF9300D00F92CDB7DEB77F
:1017000089837B836A838981882F90E0880F991F62
:10171000FC01E557FE4F0190F081E02D8081EA81C8
:10172000FB81808381E00F900F900F90CF91DF912C
:101730000895DF93CF93CDB7DEB7E4E3F0E080EF19
:101740008083E5E3F0E08FEF8083CF91DF91089510
:10175000DF93CF93CDB7DEB763970FB6F894DEBFB4
:101760000FBECDBF88E48B8B84E090E09A8B898B91
:10177000BEC082E06FEF0E94460B998982E0692F1C
:1017800040E00E94000A188A1F86A6C0E3E3F0E04A
:101790008081882F90E00F8402C0959587950A94E8
:1017A000E2F781709070009709F091C0E3E3F0E0F8
:1017B0008081882F90E00F8402C0959587950A94C8
:1017C000E2F781709070009789F389899A8904976C
:1017D0002F853889880F991F880F991F820F931FB3
:1017E000FC01E556FE4F80818B8B80E090E0A0E20B
:1017F000B1E48B879C87AD87BE876B857C858D85A3
:101800009E8520E030E04AE753E40E941702DC01A5
:10181000CB018F839887A987BA876F81788589855F
:101820009A8520E030E040E85FE30E94710388235E
:101830002CF481E090E09E838D833FC06F8178859A
:1018400089859A8520E03FEF4FE757E40E94110316
:1018500018164CF56B857C858D859E8520E030E0E3
:1018600040E251E40E941702DC01CB01BC01CD0132
:101870000E944100DC01CB019E838D830FC089E172
:1018800090E09C838B838B819C810197F1F79C83F3
:101890008B838D819E8101979E838D838D819E8117
:1018A000009769F714C06F81788589859A850E94B1
:1018B0004100DC01CB019E838D838D819E819A83C3
:1018C000898389819A810197F1F79A8389838F852A
:1018D00098890196988B8F878F8598898430910598
:1018E0000CF454CF89899A8901969A8B898B8989BE
:1018F0009A89883091050CF43CCF8B8963960FB69A
:10190000F894DEBF0FBECDBFCF91DF910895DF9376
:10191000CF93CDB7DEB72F970FB6F894DEBF0FBECB
:10192000CDBF0E9448060E94990B8DE690E00E9470
:10193000FC0781E060E00E945D070E94A80B8F8792
:1019400081E00E947E078F850E94BD0780E090E0C5
:10195000AAEFB3E48B879C87AD87BE876B857C85B8
:101960008D859E8520E030E04AE753E40E9417020F
:10197000DC01CB018F839887A987BA876F8178852F
:1019800089859A8520E030E040E85FE30E9471039A
:1019900088232CF481E090E09E838D833FC06F818B
:1019A000788589859A8520E03FEF4FE757E40E94CC
:1019B000110318164CF56B857C858D859E8520E07E
:1019C00030E040E251E40E941702DC01CB01BC018F
:1019D000CD010E944100DC01CB019E838D830FC0AD
:1019E00089E190E09C838B838B819C810197F1F747
:1019F0009C838B838D819E8101979E838D838D81B6
:101A00009E81009769F791CF6F81788589859A8546
:101A10000E944100DC01CB019E838D838D819E81DC
:101A20009A83898389819A810197F1F79A838983BF
:101A30007CCF2F923F924F925F926F927F928F92C4
:101A40009F92AF92BF92CF92DF92EF92FF920F934D
:101A50001F93CF93DF93CDB7DEB7CA1BDB0B0FB657
:101A6000F894DEBF0FBECDBF09942A883988488814
:101A70005F846E847D848C849B84AA84B984C884AA
:101A8000DF80EE80FD800C811B81AA81B981CE0FA1
:101A9000D11D0FB6F894DEBF0FBECDBFED01089586
:101AA000FB019F01E8944230C4F04532B4F44A305F
:101AB00029F497FB1EF4909581959F4F642F77270B
:101AC0000E942210805D8A330CF0895D8193CB01E6
:101AD0000097A1F716F45DE251931082C9010C94AE
:101AE000880FAEE0B0E0E7E7FDE00C94270D0D892C
:101AF0001E8986E08C831A8309838FEF9FE79E837C
:101B00008D839E01275E3F4FCE0101966F89788DB0
:101B1000A9010E94950D2F813885020F131FF8012E
:101B200010822E96E4E00C94430DABE0B0E0EBE9BC
:101B3000FDE00C94190D3C012B015A01FC011782A8
:101B40001682838181FD03C06FEF7FEFC6C19AE0EB
:101B5000892E1E010894211C311CF3012381F201FE
:101B600023FD859123FF81912F01882309F4B2C1C0
:101B7000853239F423FD859123FF81912F01853230
:101B800029F490E0B3010E94980FE7CF982FFF242B
:101B9000EE249924FFE1FF15D0F09B3269F09C32CE
:101BA00028F4903259F0933291F40EC09D3249F0EE
:101BB000903369F441E024C052E0F52A84E0F82A29
:101BC00028C098E0F92A25C0E0E1FE2A22C0F7FCEF
:101BD00029C0892F80538A3070F4F6FE05C0989C86
:101BE000902C1124980E15C0E89CE02C1124E80ECE
:101BF000F0E2FF2A0EC09E3229F4F6FC6BC140E4ED
:101C0000F42A07C09C3619F450E8F52A02C0983629
:101C100049F4F20123FD959123FF91912F0199231E
:101C200009F0B8CF892F8554833018F08052833063
:101C300038F444E050E0A40EB51E5FE359830FC0B2
:101C4000933631F0933779F0933509F056C020C0C0
:101C5000F5018081898342E050E0A40EB51E610148
:101C600001E010E012C0F501C080D180F6FC03C095
:101C70006FEF7FEF02C0692D70E042E050E0A40EEC
:101C8000B51EC6010E947D0F8C015FE7F52214C0CE
:101C9000F501C080D180F6FC03C06FEF7FEF02C07A
:101CA000692D70E042E050E0A40EB51EC6010E940E
:101CB000720F8C0150E8F52AF3FE07C01AC080E2CB
:101CC00090E0B3010E94980FEA948E2D90E00817DF
:101CD0001907A8F30EC0F601F7FC8591F7FE819174
:101CE0006F0190E0B3010E94980FE110EA94015057
:101CF00010400115110579F7EAC0943611F09936B4
:101D000069F5F7FE08C0F5012081318142815381D8
:101D100084E090E00AC0F501808191819C01442714
:101D200037FD4095542F82E090E0A80EB91E9FE643
:101D3000F92257FF09C050954095309521953F4FA6
:101D40004F4F5F4FE0E8FE2ACA01B901A1012AE026
:101D500030E00E94C40FD82ED21840C0953729F425
:101D60001F2D1F7E2AE030E01DC01F2D197F9F36DA
:101D700061F0903720F4983509F0ACC00FC090376F
:101D800039F0983709F0A6C004C028E030E00AC056
:101D9000106114FD146020E130E004C014FD1660F1
:101DA00020E132E017FF08C0F50160817181828176
:101DB000938144E050E008C0F50180819181BC012D
:101DC00080E090E042E050E0A40EB51EA1010E9428
:101DD000C40FD82ED2188FE7F82EF122F6FE0BC0D2
:101DE0005EEFF522D91438F4F4FE07C0F2FC05C00A
:101DF0008FEEF82202C01D2D01C0192DF4FE0DC07A
:101E0000FE01ED0DF11D8081803319F499EEF92268
:101E100008C01F5FF2FE05C003C08F2D867809F051
:101E20001F5F0F2DF3FC14C0F0FE0FC01E1510F045
:101E30009D2C0BC09D2C9E0C911A1E2D06C080E27D
:101E400090E0B3010E94980F1F5F1E15C0F304C0FD
:101E50001E1510F4E11A01C0EE2404FF0FC080E348
:101E600090E0B3010E94980F02FF1DC001FD03C066
:101E700088E790E00EC088E590E00BC0802F867860
:101E800091F001FF02C08BE201C080E2F7FC8DE21D
:101E900090E0B3010E94980F06C080E390E0B30188
:101EA0000E94980F9A94D914C0F3DA94F101ED0DC1
:101EB000F11D808190E0B3010E94980FDD20A9F709
:101EC00006C080E290E0B3010E94980FEA94EE20F1
:101ED000C1F743CEF30166817781CB012B96E2E116
:101EE0000C94350DFC010590615070400110D8F73D
:101EF000809590958E0F9F1F0895FC016150704052
:101F000001900110D8F7809590958E0F9F1F08952E
:101F1000DC01FC01672F71917723E1F7329704C050
:101F20007C916D9370836291AE17BF07C8F30895DB
:101F30000F931F93CF93DF938C01EB018B8181FF74
:101F40001BC082FF0DC02E813F818C819D8128178F
:101F5000390764F4E881F9810193F983E88306C0C5
:101F6000E885F985802F0995892B31F48E819F8131
:101F700001969F838E8302C00FEF1FEFC801DF9190
:101F8000CF911F910F910895FA01AA27283051F19E
:101F9000203181F1E8946F936E7F6E5F7F4F8F4F9A
:101FA0009F4FAF4FB1E03ED0B4E03CD0670F781FF9
:101FB000891F9A1FA11D680F791F8A1F911DA11DDE
:101FC0006A0F711D811D911DA11D20D009F4689417
:101FD0003F912AE0269F11243019305D3193DEF6BF
:101FE000CF010895462F4770405D4193B3E00FD075
:101FF000C9F7F6CF462F4F70405D4A3318F0495D60
:1020000031FD4052419302D0A9F7EACFB4E0A69542
:102010009795879577956795BA95C9F70097610564
:10202000710508959B01AC010A2E069457954795BA
:1020300037952795BA95C9F7620F731F841F951FAF
:10204000A01D0895AA1BBB1B51E107C0AA1FBB1FFF
:10205000A617B70710F0A61BB70B881F991F5A9534
:10206000A9F780959095BC01CD010895F894FFCF14
:102070002D0000257325642E253034640057454C0F
:10208000434F4D4520534C45454D00000000000096
:10209000000000000102020303030304040404041B
:1020A00004040405050505050505050505050505E3
:1020B00005050506060606060606060606060606C3
:1020C00006060606060606060606060606060606B0
:1020D0000606060707070707070707070707070793
:1020E0000707070707070707070707070707070780
:1020F0000707070707070707070707070707070770
:10210000070707070707070707070707070707075F
:102110000707070808080808080808080808080842
:10212000080808080808080808080808080808082F
:10213000080808080808080808080808080808081F
:10214000080808080808080808080808080808080F
:1021500008080808080808080808080808080808FF
:1021600008080808080808080808080808080808EF
:1021700008080808080808080808080808080808DF
:1021800008080808080808080808080808080808CF
:102190000808083B003800350032003A00370034A8
:1021A00000310039003600330030003734313F3819
:0C21B000353230393633302F2A2D2B0009
:00000001FF
